{
  "address": "0xdbc4b16575438AF93f74789c447f2c97736003F0",
  "abi": [
    {
      "inputs": [
        {
          "internalType": "address",
          "name": "_TCO2Faucet",
          "type": "address"
        },
        {
          "internalType": "address",
          "name": "_TCO2Token",
          "type": "address"
        },
        {
          "internalType": "string",
          "name": "_name",
          "type": "string"
        },
        {
          "internalType": "string",
          "name": "_symbol",
          "type": "string"
        }
      ],
      "stateMutability": "nonpayable",
      "type": "constructor"
    },
    {
      "inputs": [],
      "name": "ApprovalOwnerIsOperator",
      "type": "error"
    },
    {
      "inputs": [],
      "name": "ApprovalToCurrentOwner",
      "type": "error"
    },
    {
      "inputs": [],
      "name": "BalanceQueryZeroAddress",
      "type": "error"
    },
    {
      "inputs": [],
      "name": "ERC721ReceiverNotReceived",
      "type": "error"
    },
    {
      "inputs": [],
      "name": "InvalidCall",
      "type": "error"
    },
    {
      "inputs": [],
      "name": "NonExistentToken",
      "type": "error"
    },
    {
      "inputs": [],
      "name": "NotERC721Receiver",
      "type": "error"
    },
    {
      "anonymous": false,
      "inputs": [
        {
          "indexed": true,
          "internalType": "address",
          "name": "owner",
          "type": "address"
        },
        {
          "indexed": true,
          "internalType": "address",
          "name": "approved",
          "type": "address"
        },
        {
          "indexed": true,
          "internalType": "uint256",
          "name": "tokenId",
          "type": "uint256"
        }
      ],
      "name": "Approval",
      "type": "event"
    },
    {
      "anonymous": false,
      "inputs": [
        {
          "indexed": true,
          "internalType": "address",
          "name": "owner",
          "type": "address"
        },
        {
          "indexed": true,
          "internalType": "address",
          "name": "operator",
          "type": "address"
        },
        {
          "indexed": false,
          "internalType": "bool",
          "name": "approved",
          "type": "bool"
        }
      ],
      "name": "ApprovalForAll",
      "type": "event"
    },
    {
      "anonymous": false,
      "inputs": [
        {
          "indexed": true,
          "internalType": "address",
          "name": "_to",
          "type": "address"
        },
        {
          "indexed": true,
          "internalType": "uint256",
          "name": "_tokenId",
          "type": "uint256"
        },
        {
          "indexed": false,
          "internalType": "string",
          "name": "_uri",
          "type": "string"
        }
      ],
      "name": "Minted",
      "type": "event"
    },
    {
      "anonymous": false,
      "inputs": [
        {
          "indexed": true,
          "internalType": "address",
          "name": "from",
          "type": "address"
        },
        {
          "indexed": true,
          "internalType": "address",
          "name": "to",
          "type": "address"
        },
        {
          "indexed": true,
          "internalType": "uint256",
          "name": "tokenId",
          "type": "uint256"
        }
      ],
      "name": "Transfer",
      "type": "event"
    },
    {
      "inputs": [],
      "name": "_tokenIdCounter",
      "outputs": [
        {
          "internalType": "uint256",
          "name": "_value",
          "type": "uint256"
        }
      ],
      "stateMutability": "view",
      "type": "function"
    },
    {
      "inputs": [
        {
          "internalType": "address",
          "name": "to",
          "type": "address"
        },
        {
          "internalType": "uint256",
          "name": "tokenId",
          "type": "uint256"
        }
      ],
      "name": "approve",
      "outputs": [],
      "stateMutability": "nonpayable",
      "type": "function"
    },
    {
      "inputs": [
        {
          "internalType": "address",
          "name": "owner",
          "type": "address"
        }
      ],
      "name": "balanceOf",
      "outputs": [
        {
          "internalType": "uint256",
          "name": "",
          "type": "uint256"
        }
      ],
      "stateMutability": "view",
      "type": "function"
    },
    {
      "inputs": [
        {
          "internalType": "address",
          "name": "",
          "type": "address"
        }
      ],
      "name": "balances",
      "outputs": [
        {
          "internalType": "uint256",
          "name": "",
          "type": "uint256"
        }
      ],
      "stateMutability": "view",
      "type": "function"
    },
    {
      "inputs": [
        {
          "internalType": "address",
          "name": "",
          "type": "address"
        }
      ],
      "name": "charity",
      "outputs": [
        {
          "internalType": "uint256",
          "name": "",
          "type": "uint256"
        }
      ],
      "stateMutability": "view",
      "type": "function"
    },
    {
      "inputs": [
        {
          "internalType": "address",
          "name": "",
          "type": "address"
        }
      ],
      "name": "crowfunding",
      "outputs": [
        {
          "internalType": "uint256",
          "name": "",
          "type": "uint256"
        }
      ],
      "stateMutability": "view",
      "type": "function"
    },
    {
      "inputs": [
        {
          "internalType": "uint256",
          "name": "_tokenId",
          "type": "uint256"
        }
      ],
      "name": "donate",
      "outputs": [],
      "stateMutability": "payable",
      "type": "function"
    },
    {
      "inputs": [
        {
          "internalType": "uint256",
          "name": "tokenId",
          "type": "uint256"
        }
      ],
      "name": "getApproved",
      "outputs": [
        {
          "internalType": "address",
          "name": "",
          "type": "address"
        }
      ],
      "stateMutability": "view",
      "type": "function"
    },
    {
      "inputs": [
        {
          "internalType": "address",
          "name": "owner",
          "type": "address"
        },
        {
          "internalType": "address",
          "name": "operator",
          "type": "address"
        }
      ],
      "name": "isApprovedForAll",
      "outputs": [
        {
          "internalType": "bool",
          "name": "",
          "type": "bool"
        }
      ],
      "stateMutability": "view",
      "type": "function"
    },
    {
      "inputs": [
        {
          "internalType": "uint256",
          "name": "_CO2Emission",
          "type": "uint256"
        },
        {
          "internalType": "string",
          "name": "_uri",
          "type": "string"
        }
      ],
      "name": "mintNetZeroCertificate",
      "outputs": [],
      "stateMutability": "nonpayable",
      "type": "function"
    },
    {
      "inputs": [],
      "name": "name",
      "outputs": [
        {
          "internalType": "string",
          "name": "",
          "type": "string"
        }
      ],
      "stateMutability": "view",
      "type": "function"
    },
    {
      "inputs": [
        {
          "internalType": "uint256",
          "name": "tokenId",
          "type": "uint256"
        }
      ],
      "name": "ownerOf",
      "outputs": [
        {
          "internalType": "address",
          "name": "",
          "type": "address"
        }
      ],
      "stateMutability": "view",
      "type": "function"
    },
    {
      "inputs": [
        {
          "internalType": "address",
          "name": "from",
          "type": "address"
        },
        {
          "internalType": "address",
          "name": "to",
          "type": "address"
        },
        {
          "internalType": "uint256",
          "name": "tokenId",
          "type": "uint256"
        }
      ],
      "name": "safeTransferFrom",
      "outputs": [],
      "stateMutability": "nonpayable",
      "type": "function"
    },
    {
      "inputs": [
        {
          "internalType": "address",
          "name": "from",
          "type": "address"
        },
        {
          "internalType": "address",
          "name": "to",
          "type": "address"
        },
        {
          "internalType": "uint256",
          "name": "tokenId",
          "type": "uint256"
        },
        {
          "internalType": "bytes",
          "name": "_data",
          "type": "bytes"
        }
      ],
      "name": "safeTransferFrom",
      "outputs": [],
      "stateMutability": "nonpayable",
      "type": "function"
    },
    {
      "inputs": [
        {
          "internalType": "address",
          "name": "operator",
          "type": "address"
        },
        {
          "internalType": "bool",
          "name": "approved",
          "type": "bool"
        }
      ],
      "name": "setApprovalForAll",
      "outputs": [],
      "stateMutability": "nonpayable",
      "type": "function"
    },
    {
      "inputs": [
        {
          "internalType": "uint256",
          "name": "tokenId",
          "type": "uint256"
        }
      ],
      "name": "staticTokenURI",
      "outputs": [
        {
          "internalType": "string",
          "name": "",
          "type": "string"
        }
      ],
      "stateMutability": "view",
      "type": "function"
    },
    {
      "inputs": [
        {
          "internalType": "bytes4",
          "name": "interfaceId",
          "type": "bytes4"
        }
      ],
      "name": "supportsInterface",
      "outputs": [
        {
          "internalType": "bool",
          "name": "",
          "type": "bool"
        }
      ],
      "stateMutability": "view",
      "type": "function"
    },
    {
      "inputs": [],
      "name": "symbol",
      "outputs": [
        {
          "internalType": "string",
          "name": "",
          "type": "string"
        }
      ],
      "stateMutability": "view",
      "type": "function"
    },
    {
      "inputs": [
        {
          "internalType": "uint256",
          "name": "tokenId",
          "type": "uint256"
        }
      ],
      "name": "tokenURI",
      "outputs": [
        {
          "internalType": "string",
          "name": "",
          "type": "string"
        }
      ],
      "stateMutability": "view",
      "type": "function"
    },
    {
      "inputs": [],
      "name": "totalSupply",
      "outputs": [
        {
          "internalType": "uint256",
          "name": "",
          "type": "uint256"
        }
      ],
      "stateMutability": "view",
      "type": "function"
    },
    {
      "inputs": [
        {
          "internalType": "address",
          "name": "from",
          "type": "address"
        },
        {
          "internalType": "address",
          "name": "to",
          "type": "address"
        },
        {
          "internalType": "uint256",
          "name": "tokenId",
          "type": "uint256"
        }
      ],
      "name": "transferFrom",
      "outputs": [],
      "stateMutability": "nonpayable",
      "type": "function"
    },
    {
      "inputs": [],
      "name": "withdraw",
      "outputs": [],
      "stateMutability": "nonpayable",
      "type": "function"
    },
    {
      "stateMutability": "payable",
      "type": "receive"
    }
  ],
  "transactionHash": "0x32df517134931e743ce89d43ba4dd66a3eca8e7d53fa02cf7215d59b16a25891",
  "args": [
    "0x0b8f280df5ca109e702ea27266adb0705bfacf01",
    "0xb297f730e741a822a426c737ecd0f7877a9a2c22",
    "Green Carbon Calculator",
    "GCC"
  ],
  "numDeployments": 2,
  "solcInputHash": "bb5d1c05bbed6a189871e7e6541a9293",
  "bytecode": "0x60806040523480156200001157600080fd5b5060405162001ee638038062001ee68339810160408190526200003491620001f4565b600762000042838262000392565b50600862000051828262000392565b5050600980546001600160a01b039485166001600160a01b031991821617909155600a8054939094169216919091179091555062000462565b60006001600160a01b0382165b92915050565b620000a8816200008a565b8114620000b457600080fd5b50565b805162000097816200009d565b634e487b7160e01b600052604160045260246000fd5b601f19601f83011681018181106001600160401b0382111715620001025762000102620000c4565b6040525050565b60006200011560405190565b9050620001238282620000da565b919050565b60006001600160401b03821115620001445762000144620000c4565b601f19601f83011660200192915050565b60005b838110156200017257818101518382015260200162000158565b50506000910152565b6000620001926200018c8462000128565b62000109565b905082815260208101848484011115620001af57620001af600080fd5b620001bc84828562000155565b509392505050565b600082601f830112620001da57620001da600080fd5b8151620001ec8482602086016200017b565b949350505050565b600080600080608085870312156200020f576200020f600080fd5b60006200021d8787620000b7565b94505060206200023087828801620000b7565b93505060408501516001600160401b03811115620002515762000251600080fd5b6200025f87828801620001c4565b92505060608501516001600160401b03811115620002805762000280600080fd5b6200028e87828801620001c4565b91505092959194509250565b634e487b7160e01b600052602260045260246000fd5b600281046001821680620002c557607f821691505b602082108103620002da57620002da6200029a565b50919050565b600062000097620002ee8381565b90565b620002fc83620002e0565b815460001960089490940293841b1916921b91909117905550565b600062000326818484620002f1565b505050565b818110156200034a576200034160008262000317565b6001016200032b565b5050565b601f82111562000326576000818152602090206020601f85010481016020851015620003775750805b6200038b6020601f8601048301826200032b565b5050505050565b81516001600160401b03811115620003ae57620003ae620000c4565b620003ba8254620002b0565b620003c78282856200034e565b6020601f831160018114620003fe5760008415620003e55750858201515b600019600886021c19811660028602178655506200045a565b600085815260208120601f198616915b828110156200043057888501518255602094850194600190920191016200040e565b868310156200044d5784890151600019601f89166008021c191682555b6001600288020188555050505b505050505050565b611a7480620004726000396000f3fe6080604052600436106101395760003560e01c806370a08231116100ab578063b88d4fde1161006f578063b88d4fde1461038a578063bf1fe72d146103aa578063c87b56dd146103ca578063d64d2622146103ea578063e985e9c514610417578063f14faf6f1461043757600080fd5b806370a08231146102fe57806384c4bd4b1461031e57806395d89b4114610335578063a22cb4651461034a578063b644e2461461036a57600080fd5b806323b872dd116100fd57806323b872dd1461022f57806327e235e31461024f57806334585ece1461027c5780633ccfd60b146102a957806342842e0e146102be5780636352211e146102de57600080fd5b806301ffc9a71461016a57806306fdde03146101a0578063081812fc146101c2578063095ea7b3146101ef57806318160ddd1461021157600080fd5b3661016557336000908152600b60205260408120805434929061015d908490611220565b925050819055005b600080fd5b34801561017657600080fd5b5061018a610185366004611258565b61044a565b6040516101979190611283565b60405180910390f35b3480156101ac57600080fd5b506101b5610475565b60405161019791906112e7565b3480156101ce57600080fd5b506101e26101dd366004611309565b610503565b6040516101979190611344565b3480156101fb57600080fd5b5061020f61020a366004611366565b610547565b005b34801561021d57600080fd5b506000545b60405161019791906113a9565b34801561023b57600080fd5b5061020f61024a3660046113b7565b6105d6565b34801561025b57600080fd5b5061022261026a366004611407565b600b6020526000908152604090205481565b34801561028857600080fd5b50610222610297366004611407565b600c6020526000908152604090205481565b3480156102b557600080fd5b5061020f6105e7565b3480156102ca57600080fd5b5061020f6102d93660046113b7565b6106b1565b3480156102ea57600080fd5b506101e26102f9366004611309565b6106cc565b34801561030a57600080fd5b50610222610319366004611407565b61078c565b34801561032a57600080fd5b506006546102229081565b34801561034157600080fd5b506101b56107d1565b34801561035657600080fd5b5061020f61036536600461143b565b6107de565b34801561037657600080fd5b506101b5610385366004611309565b6107ed565b34801561039657600080fd5b5061020f6103a5366004611569565b6108b3565b3480156103b657600080fd5b5061020f6103c53660046115e8565b6108bf565b3480156103d657600080fd5b506101b56103e5366004611309565b610a97565b3480156103f657600080fd5b50610222610405366004611407565b600d6020526000908152604090205481565b34801561042357600080fd5b5061018a610432366004611636565b610aa2565b61020f610445366004611309565b610ad0565b60006001600160e01b03198216635b5e139f60e01b148061046f575061046f82610bed565b92915050565b600780546104829061167f565b80601f01602080910402602001604051908101604052809291908181526020018280546104ae9061167f565b80156104fb5780601f106104d0576101008083540402835291602001916104fb565b820191906000526020600020905b8154815290600101906020018083116104de57829003601f168201915b505050505081565b600061050e82610c22565b61052b57604051634a1850bf60e11b815260040160405180910390fd5b506000908152600360205260409020546001600160a01b031690565b6000610552826106cc565b9050806001600160a01b0316836001600160a01b0316036105865760405163250fdee360e21b815260040160405180910390fd5b336001600160a01b03821681148015906105a757506105a58282610aa2565b155b156105c55760405163250fdee360e21b815260040160405180910390fd5b6105d0848484610c37565b50505050565b6105e233848484610c93565b505050565b336000908152600b602052604090205461061c5760405162461bcd60e51b8152600401610613906116f1565b60405180910390fd5b336000818152600b602052604080822054905191929161063b90611704565b60006040518083038185875af1925050503d8060008114610678576040519150601f19603f3d011682016040523d82523d6000602084013e61067d565b606091505b505090508061069e5760405162461bcd60e51b81526004016106139061173a565b50336000908152600b6020526040812055565b6105e2838383604051806020016040528060008152506108b3565b60008181526001602052604081205482906001600160a01b031615610709576000908152600160205260409020546001600160a01b031692915050565b60008111801561071b57506000548111155b15610772575b60001981019060000360010115610772576000818152600160205260409020546001600160a01b03161561076d576000908152600160205260409020546001600160a01b031692915050565b610721565b50604051634a1850bf60e11b815260040160405180910390fd5b60006001600160a01b0382166107b5576040516316285dcb60e11b815260040160405180910390fd5b506001600160a01b031660009081526002602052604090205490565b600880546104829061167f565b6107e9338383610cc6565b5050565b60606107f882610c22565b61081557604051634a1850bf60e11b815260040160405180910390fd5b6000828152600560205260409020805461082e9061167f565b80601f016020809104026020016040519081016040528092919081815260200182805461085a9061167f565b80156108a75780601f1061087c576101008083540402835291602001916108a7565b820191906000526020600020905b81548152906001019060200180831161088a57829003601f168201915b50505050509050919050565b6105d084848484610d69565b60005a600954600a5460405163f3fef3a360e01b81529293506001600160a01b039182169263f3fef3a3926108fa921690879060040161174a565b600060405180830381600087803b15801561091457600080fd5b505af1158015610928573d6000803e3d6000fd5b5050600a54604051633790cf5760e01b81526001600160a01b039091169250633790cf57915061095c9086906004016113a9565b600060405180830381600087803b15801561097657600080fd5b505af115801561098a573d6000803e3d6000fd5b5050505061099c600680546001019055565b60006109a760065490565b90506109b4336001610db6565b6109be8184610dd0565b60005a6109cb9084611765565b905060006109d9823a611778565b336000908152600b6020526040902054909150811115610a0b5760405162461bcd60e51b8152600401610613906117da565b336000908152600c602052604081208054839290610a2a908490611220565b9091555050336000908152600b602052604081208054839290610a4e908490611765565b9091555050604051839033907fe7cd4ce7f2a465edc730269a1305e8a48bad821e8fb7e152ec413829c01a53c490610a879089906112e7565b60405180910390a3505050505050565b606061046f826107ed565b6001600160a01b03918216600090815260046020908152604080832093909416825291909152205460ff1690565b6000600c6000610adf846106cc565b6001600160a01b03166001600160a01b031681526020019081526020016000205490506000600d6000610b11856106cc565b6001600160a01b03166001600160a01b03168152602001908152602001600020549050808211610b535760405162461bcd60e51b81526004016106139061181e565b6000610b5f8284611765565b905080341115610b815760405162461bcd60e51b815260040161061390611862565b34600d6000610b8f876106cc565b6001600160a01b03166001600160a01b031681526020019081526020016000206000828254610bbe9190611220565b9091555050336000908152600b602052604081208054349290610be2908490611220565b909155505050505050565b60006001600160e01b031982166380ac58cd60e01b148061046f57506301ffc9a760e01b6001600160e01b031983161461046f565b6000808211801561046f575050600054101590565b60008281526003602052604080822080546001600160a01b0319166001600160a01b0387811691821790925591518593918516917f8c5be1e5ebec7d5bd14f71427d1e84f3dd0314c0f7b2291e5b200ac8c7c3b92591a4505050565b610c9e848285610e0e565b610cbb5760405163574b16a760e11b815260040160405180910390fd5b6105d0838383610e63565b816001600160a01b0316836001600160a01b031603610cf85760405163079f14e360e51b815260040160405180910390fd5b6001600160a01b0383811660008181526004602090815260408083209487168084529490915290819020805460ff1916851515179055517f17307eab39ab6107e8899845ad3d59bd9653f200f220920489ca2b5937696c3190610d5c908590611283565b60405180910390a3505050565b610d7533858585610c93565b6000836001600160a01b03163b118015610d985750610d9684848484610fab565b155b156105d057604051631f11849560e21b815260040160405180910390fd5b6107e9828260405180602001604052806000815250611097565b610dd982610c22565b610df657604051634a1850bf60e11b815260040160405180910390fd5b60008281526005602052604090206105e2828261190a565b6000816001600160a01b0316846001600160a01b03161480610e495750836001600160a01b0316610e3e84610503565b6001600160a01b0316145b80610e595750610e598285610aa2565b90505b9392505050565b6001600160a01b0382161580610e935750610e7d816106cc565b6001600160a01b0316836001600160a01b031614155b15610eb15760405163574b16a760e11b815260040160405180910390fd5b610ebd60008285610c37565b6001600160a01b038083166000818152600260209081526040808320805460019081019091559488168352808320805460001901905585835290849052812080546001600160a01b03191690921790915554908201908111801590610f3757506000818152600160205260409020546001600160a01b0316155b15610f6457600081815260016020526040902080546001600160a01b0319166001600160a01b0386161790555b5080826001600160a01b0316846001600160a01b03167fddf252ad1be2c89b69c2b068fc378daa952ba7f163c4a11628f55a4df523b3ef60405160405180910390a4505050565b604051630a85bd0160e11b81526000906001600160a01b0385169063150b7a0290610fe09033908990889088906004016119ce565b6020604051808303816000875af192505050801561101b575060408051601f3d908101601f1916820190925261101891810190611a1d565b60015b611079573d808015611049576040519150601f19603f3d011682016040523d82523d6000602084013e61104e565b606091505b50805160000361107157604051630568cbab60e01b815260040160405180910390fd5b805181602001fd5b6001600160e01b031916630a85bd0160e11b1490505b949350505050565b6105e283838360018215806110b357506001600160a01b038416155b156110d15760405163574b16a760e11b815260040160405180910390fd5b600080546110e0906001611220565b905060008054850181556001600160a01b038616808252600260209081526040808420805489019055848452600190915290912080546001600160a01b03191690911790558084810183801561114057506000876001600160a01b03163b115b156111bd575b60405182906001600160a01b038916906000907fddf252ad1be2c89b69c2b068fc378daa952ba7f163c4a11628f55a4df523b3ef908290a46111916000888480600101955088610fab565b6111ae57604051631f11849560e21b815260040160405180910390fd5b808203611146575050506105d0565b5b6040516001830192906001600160a01b038916906000907fddf252ad1be2c89b69c2b068fc378daa952ba7f163c4a11628f55a4df523b3ef908290a48082036111be5750505050505050565b634e487b7160e01b600052601160045260246000fd5b8082018082111561046f5761046f61120a565b6001600160e01b031981165b811461124a57600080fd5b50565b803561046f81611233565b60006020828403121561126d5761126d600080fd5b600061108f848461124d565b8015155b82525050565b6020810161046f8284611279565b60005b838110156112ac578181015183820152602001611294565b50506000910152565b60006112bf825190565b8084526020840193506112d6818560208601611291565b601f01601f19169290920192915050565b60208082528101610e5c81846112b5565b8061123f565b803561046f816112f8565b60006020828403121561131e5761131e600080fd5b600061108f84846112fe565b60006001600160a01b03821661046f565b61127d8161132a565b6020810161046f828461133b565b61123f8161132a565b803561046f81611352565b6000806040838503121561137c5761137c600080fd5b6000611388858561135b565b9250506020611399858286016112fe565b9150509250929050565b8061127d565b6020810161046f82846113a3565b6000806000606084860312156113cf576113cf600080fd5b60006113db868661135b565b93505060206113ec8682870161135b565b92505060406113fd868287016112fe565b9150509250925092565b60006020828403121561141c5761141c600080fd5b600061108f848461135b565b80151561123f565b803561046f81611428565b6000806040838503121561145157611451600080fd5b600061145d858561135b565b925050602061139985828601611430565b634e487b7160e01b600052604160045260246000fd5b601f19601f830116810181811067ffffffffffffffff821117156114aa576114aa61146e565b6040525050565b60006114bc60405190565b90506114c88282611484565b919050565b600067ffffffffffffffff8211156114e7576114e761146e565b601f19601f83011660200192915050565b82818337506000910152565b6000611517611512846114cd565b6114b1565b90508281526020810184848401111561153257611532600080fd5b61153d8482856114f8565b509392505050565b600082601f83011261155957611559600080fd5b813561108f848260208601611504565b6000806000806080858703121561158257611582600080fd5b600061158e878761135b565b945050602061159f8782880161135b565b93505060406115b0878288016112fe565b925050606085013567ffffffffffffffff8111156115d0576115d0600080fd5b6115dc87828801611545565b91505092959194509250565b600080604083850312156115fe576115fe600080fd5b600061160a85856112fe565b925050602083013567ffffffffffffffff81111561162a5761162a600080fd5b61139985828601611545565b6000806040838503121561164c5761164c600080fd5b6000611658858561135b565b92505060206113998582860161135b565b634e487b7160e01b600052602260045260246000fd5b60028104600182168061169357607f821691505b6020821081036116a5576116a5611669565b50919050565b602681526000602082017f596f7520646f6e277420686176652066756e647320696e207468652063616c638152653ab630ba37b960d11b602082015291505b5060400190565b6020808252810161046f816116ab565b90565b60008161046f565b60148152600060208201732932bb32b93a32b2103a3930b739b0b1ba34b7b760611b815291505b5060200190565b6020808252810161046f8161170c565b60408101611758828561133b565b610e5c60208301846113a3565b8181038181111561046f5761046f61120a565b8181028082158382048514176117905761179061120a565b5092915050565b602681526000602082017f496e73756666696369656e742062616c616e636520746f20636f7665722067618152651cc818dbdcdd60d21b602082015291506116ea565b6020808252810161046f81611797565b601a81526000602082017f54686520646f6e6174696f6e7320617265206e6f74206f70656e00000000000081529150611733565b6020808252810161046f816117ea565b601a81526000602082017f54686520636f6c6c656374696f6e20697320636f6d706c65746500000000000081529150611733565b6020808252810161046f8161182e565b600061046f6117018381565b61188783611872565b815460001960089490940293841b1916921b91909117905550565b60006105e281848461187e565b818110156107e9576118c26000826118a2565b6001016118af565b601f8211156105e2576000818152602090206020601f850104810160208510156118f15750805b6119036020601f8601048301826118af565b5050505050565b815167ffffffffffffffff8111156119245761192461146e565b61192e825461167f565b6119398282856118ca565b6020601f83116001811461196d57600084156119555750858201515b600019600886021c19811660028602178655506119c6565b600085815260208120601f198616915b8281101561199d578885015182556020948501946001909201910161197d565b868310156119b95784890151600019601f89166008021c191682555b6001600288020188555050505b505050505050565b608081016119dc828761133b565b6119e9602083018661133b565b6119f660408301856113a3565b8181036060830152611a0881846112b5565b9695505050505050565b805161046f81611233565b600060208284031215611a3257611a32600080fd5b600061108f8484611a1256fea2646970667358221220842d84615528e1bb93c588bde3bb2cd6f588ba2d615ce7f2f0b1dbb89ac6f51f64736f6c63430008130033",
  "devdoc": {
    "events": {
      "Approval(address,address,uint256)": {
        "details": "Emitted when `owner` enables `approved` to manage the `tokenId` token."
      },
      "ApprovalForAll(address,address,bool)": {
        "details": "Emitted when `owner` enables or disables (`approved`) `operator` to manage all of its assets."
      },
      "Transfer(address,address,uint256)": {
        "details": "Emitted when `tokenId` token is transferred from `from` to `to`."
      }
    },
    "kind": "dev",
    "methods": {
      "approve(address,uint256)": {
        "details": "See {IERC721-approve}."
      },
      "balanceOf(address)": {
        "details": "See {IERC721-balanceOf}."
      },
      "getApproved(uint256)": {
        "details": "See {IERC721-getApproved}."
      },
      "isApprovedForAll(address,address)": {
        "details": "See {IERC721-isApprovedForAll}."
      },
      "ownerOf(uint256)": {
        "details": "See {IERC721-ownerOf}."
      },
      "safeTransferFrom(address,address,uint256)": {
        "details": "See {IERC721-safeTransferFrom}."
      },
      "safeTransferFrom(address,address,uint256,bytes)": {
        "details": "See {IERC721-safeTransferFrom}."
      },
      "setApprovalForAll(address,bool)": {
        "details": "See {IERC721-setApprovalForAll}."
      },
      "staticTokenURI(uint256)": {
        "details": "See {IERC721Metadata-tokenURI}."
      },
      "tokenURI(uint256)": {
        "details": "See {IERC721Metadata-tokenURI}."
      },
      "totalSupply()": {
        "details": "Shows the overall amount of tokens generated in the contract"
      },
      "transferFrom(address,address,uint256)": {
        "details": "See {IERC721-transferFrom}."
      }
    },
    "stateVariables": {
      "name": {
        "details": "Returns the token collection name."
      },
      "symbol": {
        "details": "Returns the token collection symbol."
      }
    },
    "version": 1
  },
  "userdoc": {
    "kind": "user",
    "methods": {},
    "version": 1
  },
  "storageLayout": {
    "storage": [
      {
        "astId": 641,
        "contract": "contracts/Footprint.sol:Footprint",
        "label": "_lastTokenId",
        "offset": 0,
        "slot": "0",
        "type": "t_uint256"
      },
      {
        "astId": 645,
        "contract": "contracts/Footprint.sol:Footprint",
        "label": "_owners",
        "offset": 0,
        "slot": "1",
        "type": "t_mapping(t_uint256,t_address)"
      },
      {
        "astId": 649,
        "contract": "contracts/Footprint.sol:Footprint",
        "label": "_balances",
        "offset": 0,
        "slot": "2",
        "type": "t_mapping(t_address,t_uint256)"
      },
      {
        "astId": 653,
        "contract": "contracts/Footprint.sol:Footprint",
        "label": "_tokenApprovals",
        "offset": 0,
        "slot": "3",
        "type": "t_mapping(t_uint256,t_address)"
      },
      {
        "astId": 659,
        "contract": "contracts/Footprint.sol:Footprint",
        "label": "_operatorApprovals",
        "offset": 0,
        "slot": "4",
        "type": "t_mapping(t_address,t_mapping(t_address,t_bool))"
      },
      {
        "astId": 1513,
        "contract": "contracts/Footprint.sol:Footprint",
        "label": "_tokenURIs",
        "offset": 0,
        "slot": "5",
        "type": "t_mapping(t_uint256,t_string_storage)"
      },
      {
        "astId": 319,
        "contract": "contracts/Footprint.sol:Footprint",
        "label": "_tokenIdCounter",
        "offset": 0,
        "slot": "6",
        "type": "t_struct(Counter)188_storage"
      },
      {
        "astId": 321,
        "contract": "contracts/Footprint.sol:Footprint",
        "label": "name",
        "offset": 0,
        "slot": "7",
        "type": "t_string_storage"
      },
      {
        "astId": 323,
        "contract": "contracts/Footprint.sol:Footprint",
        "label": "symbol",
        "offset": 0,
        "slot": "8",
        "type": "t_string_storage"
      },
      {
        "astId": 326,
        "contract": "contracts/Footprint.sol:Footprint",
        "label": "TCO2FaucetExtense",
        "offset": 0,
        "slot": "9",
        "type": "t_contract(ITCO2Faucet)304"
      },
      {
        "astId": 329,
        "contract": "contracts/Footprint.sol:Footprint",
        "label": "TCO2TokenExtense",
        "offset": 0,
        "slot": "10",
        "type": "t_contract(ITCO2Token)310"
      },
      {
        "astId": 333,
        "contract": "contracts/Footprint.sol:Footprint",
        "label": "balances",
        "offset": 0,
        "slot": "11",
        "type": "t_mapping(t_address,t_uint256)"
      },
      {
        "astId": 337,
        "contract": "contracts/Footprint.sol:Footprint",
        "label": "crowfunding",
        "offset": 0,
        "slot": "12",
        "type": "t_mapping(t_address,t_uint256)"
      },
      {
        "astId": 341,
        "contract": "contracts/Footprint.sol:Footprint",
        "label": "charity",
        "offset": 0,
        "slot": "13",
        "type": "t_mapping(t_address,t_uint256)"
      }
    ],
    "types": {
      "t_address": {
        "encoding": "inplace",
        "label": "address",
        "numberOfBytes": "20"
      },
      "t_bool": {
        "encoding": "inplace",
        "label": "bool",
        "numberOfBytes": "1"
      },
      "t_contract(ITCO2Faucet)304": {
        "encoding": "inplace",
        "label": "contract ITCO2Faucet",
        "numberOfBytes": "20"
      },
      "t_contract(ITCO2Token)310": {
        "encoding": "inplace",
        "label": "contract ITCO2Token",
        "numberOfBytes": "20"
      },
      "t_mapping(t_address,t_bool)": {
        "encoding": "mapping",
        "key": "t_address",
        "label": "mapping(address => bool)",
        "numberOfBytes": "32",
        "value": "t_bool"
      },
      "t_mapping(t_address,t_mapping(t_address,t_bool))": {
        "encoding": "mapping",
        "key": "t_address",
        "label": "mapping(address => mapping(address => bool))",
        "numberOfBytes": "32",
        "value": "t_mapping(t_address,t_bool)"
      },
      "t_mapping(t_address,t_uint256)": {
        "encoding": "mapping",
        "key": "t_address",
        "label": "mapping(address => uint256)",
        "numberOfBytes": "32",
        "value": "t_uint256"
      },
      "t_mapping(t_uint256,t_address)": {
        "encoding": "mapping",
        "key": "t_uint256",
        "label": "mapping(uint256 => address)",
        "numberOfBytes": "32",
        "value": "t_address"
      },
      "t_mapping(t_uint256,t_string_storage)": {
        "encoding": "mapping",
        "key": "t_uint256",
        "label": "mapping(uint256 => string)",
        "numberOfBytes": "32",
        "value": "t_string_storage"
      },
      "t_string_storage": {
        "encoding": "bytes",
        "label": "string",
        "numberOfBytes": "32"
      },
      "t_struct(Counter)188_storage": {
        "encoding": "inplace",
        "label": "struct Counters.Counter",
        "members": [
          {
            "astId": 187,
            "contract": "contracts/Footprint.sol:Footprint",
            "label": "_value",
            "offset": 0,
            "slot": "0",
            "type": "t_uint256"
          }
        ],
        "numberOfBytes": "32"
      },
      "t_uint256": {
        "encoding": "inplace",
        "label": "uint256",
        "numberOfBytes": "32"
      }
    }
  }
}