{
	"address": "0x7705a95DBe5d39FA285A5EFc39f41CD0C12200F3",
	"abi": [
		{
			"inputs": [
				{
					"internalType": "address",
					"name": "_TCO2Faucet",
					"type": "address"
				},
				{
					"internalType": "address",
					"name": "_TCO2Token",
					"type": "address"
				},
				{
					"internalType": "string",
					"name": "_name",
					"type": "string"
				},
				{
					"internalType": "string",
					"name": "_symbol",
					"type": "string"
				}
			],
			"stateMutability": "nonpayable",
			"type": "constructor"
		},
		{
			"inputs": [],
			"name": "ApprovalOwnerIsOperator",
			"type": "error"
		},
		{
			"inputs": [],
			"name": "ApprovalToCurrentOwner",
			"type": "error"
		},
		{
			"inputs": [],
			"name": "BalanceQueryZeroAddress",
			"type": "error"
		},
		{
			"inputs": [],
			"name": "ERC721ReceiverNotReceived",
			"type": "error"
		},
		{
			"inputs": [],
			"name": "InvalidCall",
			"type": "error"
		},
		{
			"inputs": [],
			"name": "NonExistentToken",
			"type": "error"
		},
		{
			"inputs": [],
			"name": "NotERC721Receiver",
			"type": "error"
		},
		{
			"anonymous": false,
			"inputs": [
				{
					"indexed": true,
					"internalType": "address",
					"name": "owner",
					"type": "address"
				},
				{
					"indexed": true,
					"internalType": "address",
					"name": "approved",
					"type": "address"
				},
				{
					"indexed": true,
					"internalType": "uint256",
					"name": "tokenId",
					"type": "uint256"
				}
			],
			"name": "Approval",
			"type": "event"
		},
		{
			"anonymous": false,
			"inputs": [
				{
					"indexed": true,
					"internalType": "address",
					"name": "owner",
					"type": "address"
				},
				{
					"indexed": true,
					"internalType": "address",
					"name": "operator",
					"type": "address"
				},
				{
					"indexed": false,
					"internalType": "bool",
					"name": "approved",
					"type": "bool"
				}
			],
			"name": "ApprovalForAll",
			"type": "event"
		},
		{
			"anonymous": false,
			"inputs": [
				{
					"indexed": true,
					"internalType": "address",
					"name": "from",
					"type": "address"
				},
				{
					"indexed": true,
					"internalType": "address",
					"name": "to",
					"type": "address"
				},
				{
					"indexed": true,
					"internalType": "uint256",
					"name": "tokenId",
					"type": "uint256"
				}
			],
			"name": "Transfer",
			"type": "event"
		},
		{
			"inputs": [
				{
					"internalType": "address",
					"name": "to",
					"type": "address"
				},
				{
					"internalType": "uint256",
					"name": "tokenId",
					"type": "uint256"
				}
			],
			"name": "approve",
			"outputs": [],
			"stateMutability": "nonpayable",
			"type": "function"
		},
		{
			"inputs": [
				{
					"internalType": "address",
					"name": "owner",
					"type": "address"
				}
			],
			"name": "balanceOf",
			"outputs": [
				{
					"internalType": "uint256",
					"name": "",
					"type": "uint256"
				}
			],
			"stateMutability": "view",
			"type": "function"
		},
		{
			"inputs": [
				{
					"internalType": "address",
					"name": "",
					"type": "address"
				}
			],
			"name": "balances",
			"outputs": [
				{
					"internalType": "uint256",
					"name": "",
					"type": "uint256"
				}
			],
			"stateMutability": "view",
			"type": "function"
		},
		{
			"inputs": [
				{
					"internalType": "address",
					"name": "",
					"type": "address"
				}
			],
			"name": "charity",
			"outputs": [
				{
					"internalType": "uint256",
					"name": "",
					"type": "uint256"
				}
			],
			"stateMutability": "view",
			"type": "function"
		},
		{
			"inputs": [
				{
					"internalType": "address",
					"name": "",
					"type": "address"
				}
			],
			"name": "crowfunding",
			"outputs": [
				{
					"internalType": "uint256",
					"name": "",
					"type": "uint256"
				}
			],
			"stateMutability": "view",
			"type": "function"
		},
		{
			"inputs": [
				{
					"internalType": "uint256",
					"name": "_tokenId",
					"type": "uint256"
				}
			],
			"name": "donate",
			"outputs": [],
			"stateMutability": "payable",
			"type": "function"
		},
		{
			"inputs": [
				{
					"internalType": "uint256",
					"name": "tokenId",
					"type": "uint256"
				}
			],
			"name": "getApproved",
			"outputs": [
				{
					"internalType": "address",
					"name": "",
					"type": "address"
				}
			],
			"stateMutability": "view",
			"type": "function"
		},
		{
			"inputs": [
				{
					"internalType": "address",
					"name": "owner",
					"type": "address"
				},
				{
					"internalType": "address",
					"name": "operator",
					"type": "address"
				}
			],
			"name": "isApprovedForAll",
			"outputs": [
				{
					"internalType": "bool",
					"name": "",
					"type": "bool"
				}
			],
			"stateMutability": "view",
			"type": "function"
		},
		{
			"inputs": [
				{
					"internalType": "uint256",
					"name": "_CO2Emission",
					"type": "uint256"
				},
				{
					"internalType": "string",
					"name": "_uri",
					"type": "string"
				}
			],
			"name": "mintNetZeroCertificate",
			"outputs": [],
			"stateMutability": "nonpayable",
			"type": "function"
		},
		{
			"inputs": [],
			"name": "name",
			"outputs": [
				{
					"internalType": "string",
					"name": "",
					"type": "string"
				}
			],
			"stateMutability": "view",
			"type": "function"
		},
		{
			"inputs": [
				{
					"internalType": "uint256",
					"name": "tokenId",
					"type": "uint256"
				}
			],
			"name": "ownerOf",
			"outputs": [
				{
					"internalType": "address",
					"name": "",
					"type": "address"
				}
			],
			"stateMutability": "view",
			"type": "function"
		},
		{
			"inputs": [
				{
					"internalType": "address",
					"name": "from",
					"type": "address"
				},
				{
					"internalType": "address",
					"name": "to",
					"type": "address"
				},
				{
					"internalType": "uint256",
					"name": "tokenId",
					"type": "uint256"
				}
			],
			"name": "safeTransferFrom",
			"outputs": [],
			"stateMutability": "nonpayable",
			"type": "function"
		},
		{
			"inputs": [
				{
					"internalType": "address",
					"name": "from",
					"type": "address"
				},
				{
					"internalType": "address",
					"name": "to",
					"type": "address"
				},
				{
					"internalType": "uint256",
					"name": "tokenId",
					"type": "uint256"
				},
				{
					"internalType": "bytes",
					"name": "_data",
					"type": "bytes"
				}
			],
			"name": "safeTransferFrom",
			"outputs": [],
			"stateMutability": "nonpayable",
			"type": "function"
		},
		{
			"inputs": [
				{
					"internalType": "address",
					"name": "operator",
					"type": "address"
				},
				{
					"internalType": "bool",
					"name": "approved",
					"type": "bool"
				}
			],
			"name": "setApprovalForAll",
			"outputs": [],
			"stateMutability": "nonpayable",
			"type": "function"
		},
		{
			"inputs": [
				{
					"internalType": "uint256",
					"name": "tokenId",
					"type": "uint256"
				}
			],
			"name": "staticTokenURI",
			"outputs": [
				{
					"internalType": "string",
					"name": "",
					"type": "string"
				}
			],
			"stateMutability": "view",
			"type": "function"
		},
		{
			"inputs": [
				{
					"internalType": "bytes4",
					"name": "interfaceId",
					"type": "bytes4"
				}
			],
			"name": "supportsInterface",
			"outputs": [
				{
					"internalType": "bool",
					"name": "",
					"type": "bool"
				}
			],
			"stateMutability": "view",
			"type": "function"
		},
		{
			"inputs": [],
			"name": "symbol",
			"outputs": [
				{
					"internalType": "string",
					"name": "",
					"type": "string"
				}
			],
			"stateMutability": "view",
			"type": "function"
		},
		{
			"inputs": [
				{
					"internalType": "uint256",
					"name": "tokenId",
					"type": "uint256"
				}
			],
			"name": "tokenURI",
			"outputs": [
				{
					"internalType": "string",
					"name": "",
					"type": "string"
				}
			],
			"stateMutability": "view",
			"type": "function"
		},
		{
			"inputs": [],
			"name": "totalSupply",
			"outputs": [
				{
					"internalType": "uint256",
					"name": "",
					"type": "uint256"
				}
			],
			"stateMutability": "view",
			"type": "function"
		},
		{
			"inputs": [
				{
					"internalType": "address",
					"name": "from",
					"type": "address"
				},
				{
					"internalType": "address",
					"name": "to",
					"type": "address"
				},
				{
					"internalType": "uint256",
					"name": "tokenId",
					"type": "uint256"
				}
			],
			"name": "transferFrom",
			"outputs": [],
			"stateMutability": "nonpayable",
			"type": "function"
		},
		{
			"inputs": [],
			"name": "withdraw",
			"outputs": [],
			"stateMutability": "nonpayable",
			"type": "function"
		},
		{
			"stateMutability": "payable",
			"type": "receive"
		}
	],
	"transactionHash": "0xdb071c64538e18336bd2bdb16a389083ebc0df16cb406ea20490035868b059e0",
	"args": [
		"0x0b8f280df5ca109e702ea27266adb0705bfacf01",
		"0xb297f730e741a822a426c737ecd0f7877a9a2c22",
		"Green Carbon Calculator",
		"GCC"
	],
	"numDeployments": 1,
	"solcInputHash": "313046c7de227351f6083bdb41a78795",
	"bytecode": "0x60806040523480156200001157600080fd5b5060405162001e8838038062001e888339810160408190526200003491620001f4565b600762000042838262000392565b50600862000051828262000392565b5050600980546001600160a01b039485166001600160a01b031991821617909155600a8054939094169216919091179091555062000462565b60006001600160a01b0382165b92915050565b620000a8816200008a565b8114620000b457600080fd5b50565b805162000097816200009d565b634e487b7160e01b600052604160045260246000fd5b601f19601f83011681018181106001600160401b0382111715620001025762000102620000c4565b6040525050565b60006200011560405190565b9050620001238282620000da565b919050565b60006001600160401b03821115620001445762000144620000c4565b601f19601f83011660200192915050565b60005b838110156200017257818101518382015260200162000158565b50506000910152565b6000620001926200018c8462000128565b62000109565b905082815260208101848484011115620001af57620001af600080fd5b620001bc84828562000155565b509392505050565b600082601f830112620001da57620001da600080fd5b8151620001ec8482602086016200017b565b949350505050565b600080600080608085870312156200020f576200020f600080fd5b60006200021d8787620000b7565b94505060206200023087828801620000b7565b93505060408501516001600160401b03811115620002515762000251600080fd5b6200025f87828801620001c4565b92505060608501516001600160401b03811115620002805762000280600080fd5b6200028e87828801620001c4565b91505092959194509250565b634e487b7160e01b600052602260045260246000fd5b600281046001821680620002c557607f821691505b602082108103620002da57620002da6200029a565b50919050565b600062000097620002ee8381565b90565b620002fc83620002e0565b815460001960089490940293841b1916921b91909117905550565b600062000326818484620002f1565b505050565b818110156200034a576200034160008262000317565b6001016200032b565b5050565b601f82111562000326576000818152602090206020601f85010481016020851015620003775750805b6200038b6020601f8601048301826200032b565b5050505050565b81516001600160401b03811115620003ae57620003ae620000c4565b620003ba8254620002b0565b620003c78282856200034e565b6020601f831160018114620003fe5760008415620003e55750858201515b600019600886021c19811660028602178655506200045a565b600085815260208120601f198616915b828110156200043057888501518255602094850194600190920191016200040e565b868310156200044d5784890151600019601f89166008021c191682555b6001600288020188555050505b505050505050565b611a1680620004726000396000f3fe60806040526004361061012e5760003560e01c80636352211e116100ab578063b88d4fde1161006f578063b88d4fde14610368578063bf1fe72d14610388578063c87b56dd146103a8578063d64d2622146103c8578063e985e9c5146103f5578063f14faf6f1461041557600080fd5b80636352211e146102d357806370a08231146102f357806395d89b4114610313578063a22cb46514610328578063b644e2461461034857600080fd5b806323b872dd116100f257806323b872dd1461022457806327e235e31461024457806334585ece146102715780633ccfd60b1461029e57806342842e0e146102b357600080fd5b806301ffc9a71461015f57806306fdde0314610195578063081812fc146101b7578063095ea7b3146101e457806318160ddd1461020657600080fd5b3661015a57336000908152600b6020526040812080543492906101529084906111c2565b925050819055005b600080fd5b34801561016b57600080fd5b5061017f61017a3660046111fa565b610428565b60405161018c9190611225565b60405180910390f35b3480156101a157600080fd5b506101aa610453565b60405161018c9190611289565b3480156101c357600080fd5b506101d76101d23660046112ab565b6104e1565b60405161018c91906112e6565b3480156101f057600080fd5b506102046101ff366004611308565b610525565b005b34801561021257600080fd5b506000545b60405161018c919061134b565b34801561023057600080fd5b5061020461023f366004611359565b6105b4565b34801561025057600080fd5b5061021761025f3660046113a9565b600b6020526000908152604090205481565b34801561027d57600080fd5b5061021761028c3660046113a9565b600c6020526000908152604090205481565b3480156102aa57600080fd5b506102046105c5565b3480156102bf57600080fd5b506102046102ce366004611359565b61068f565b3480156102df57600080fd5b506101d76102ee3660046112ab565b6106aa565b3480156102ff57600080fd5b5061021761030e3660046113a9565b61076a565b34801561031f57600080fd5b506101aa6107af565b34801561033457600080fd5b506102046103433660046113dd565b6107bc565b34801561035457600080fd5b506101aa6103633660046112ab565b6107cb565b34801561037457600080fd5b5061020461038336600461150b565b610891565b34801561039457600080fd5b506102046103a336600461158a565b61089d565b3480156103b457600080fd5b506101aa6103c33660046112ab565b610a39565b3480156103d457600080fd5b506102176103e33660046113a9565b600d6020526000908152604090205481565b34801561040157600080fd5b5061017f6104103660046115d8565b610a44565b6102046104233660046112ab565b610a72565b60006001600160e01b03198216635b5e139f60e01b148061044d575061044d82610b8f565b92915050565b6007805461046090611621565b80601f016020809104026020016040519081016040528092919081815260200182805461048c90611621565b80156104d95780601f106104ae576101008083540402835291602001916104d9565b820191906000526020600020905b8154815290600101906020018083116104bc57829003601f168201915b505050505081565b60006104ec82610bc4565b61050957604051634a1850bf60e11b815260040160405180910390fd5b506000908152600360205260409020546001600160a01b031690565b6000610530826106aa565b9050806001600160a01b0316836001600160a01b0316036105645760405163250fdee360e21b815260040160405180910390fd5b336001600160a01b038216811480159061058557506105838282610a44565b155b156105a35760405163250fdee360e21b815260040160405180910390fd5b6105ae848484610bd9565b50505050565b6105c033848484610c35565b505050565b336000908152600b60205260409020546105fa5760405162461bcd60e51b81526004016105f190611693565b60405180910390fd5b336000818152600b6020526040808220549051919291610619906116a6565b60006040518083038185875af1925050503d8060008114610656576040519150601f19603f3d011682016040523d82523d6000602084013e61065b565b606091505b505090508061067c5760405162461bcd60e51b81526004016105f1906116dc565b50336000908152600b6020526040812055565b6105c083838360405180602001604052806000815250610891565b60008181526001602052604081205482906001600160a01b0316156106e7576000908152600160205260409020546001600160a01b031692915050565b6000811180156106f957506000548111155b15610750575b60001981019060000360010115610750576000818152600160205260409020546001600160a01b03161561074b576000908152600160205260409020546001600160a01b031692915050565b6106ff565b50604051634a1850bf60e11b815260040160405180910390fd5b60006001600160a01b038216610793576040516316285dcb60e11b815260040160405180910390fd5b506001600160a01b031660009081526002602052604090205490565b6008805461046090611621565b6107c7338383610c68565b5050565b60606107d682610bc4565b6107f357604051634a1850bf60e11b815260040160405180910390fd5b6000828152600560205260409020805461080c90611621565b80601f016020809104026020016040519081016040528092919081815260200182805461083890611621565b80156108855780601f1061085a57610100808354040283529160200191610885565b820191906000526020600020905b81548152906001019060200180831161086857829003601f168201915b50505050509050919050565b6105ae84848484610d0b565b60005a600954600a5460405163f3fef3a360e01b81529293506001600160a01b039182169263f3fef3a3926108d892169087906004016116ec565b600060405180830381600087803b1580156108f257600080fd5b505af1158015610906573d6000803e3d6000fd5b5050600a54604051633790cf5760e01b81526001600160a01b039091169250633790cf57915061093a90869060040161134b565b600060405180830381600087803b15801561095457600080fd5b505af1158015610968573d6000803e3d6000fd5b5050505061097a600680546001019055565b600061098560065490565b9050610992336001610d58565b61099c8184610d72565b60005a6109a99084611707565b905060006109b7823a61171a565b336000908152600b60205260409020549091508111156109e95760405162461bcd60e51b81526004016105f19061177c565b336000908152600c602052604081208054839290610a089084906111c2565b9091555050336000908152600b602052604081208054839290610a2c908490611707565b9091555050505050505050565b606061044d826107cb565b6001600160a01b03918216600090815260046020908152604080832093909416825291909152205460ff1690565b6000600c6000610a81846106aa565b6001600160a01b03166001600160a01b031681526020019081526020016000205490506000600d6000610ab3856106aa565b6001600160a01b03166001600160a01b03168152602001908152602001600020549050808211610af55760405162461bcd60e51b81526004016105f1906117c0565b6000610b018284611707565b905080341115610b235760405162461bcd60e51b81526004016105f190611804565b34600d6000610b31876106aa565b6001600160a01b03166001600160a01b031681526020019081526020016000206000828254610b6091906111c2565b9091555050336000908152600b602052604081208054349290610b849084906111c2565b909155505050505050565b60006001600160e01b031982166380ac58cd60e01b148061044d57506301ffc9a760e01b6001600160e01b031983161461044d565b6000808211801561044d575050600054101590565b60008281526003602052604080822080546001600160a01b0319166001600160a01b0387811691821790925591518593918516917f8c5be1e5ebec7d5bd14f71427d1e84f3dd0314c0f7b2291e5b200ac8c7c3b92591a4505050565b610c40848285610db0565b610c5d5760405163574b16a760e11b815260040160405180910390fd5b6105ae838383610e05565b816001600160a01b0316836001600160a01b031603610c9a5760405163079f14e360e51b815260040160405180910390fd5b6001600160a01b0383811660008181526004602090815260408083209487168084529490915290819020805460ff1916851515179055517f17307eab39ab6107e8899845ad3d59bd9653f200f220920489ca2b5937696c3190610cfe908590611225565b60405180910390a3505050565b610d1733858585610c35565b6000836001600160a01b03163b118015610d3a5750610d3884848484610f4d565b155b156105ae57604051631f11849560e21b815260040160405180910390fd5b6107c7828260405180602001604052806000815250611039565b610d7b82610bc4565b610d9857604051634a1850bf60e11b815260040160405180910390fd5b60008281526005602052604090206105c082826118ac565b6000816001600160a01b0316846001600160a01b03161480610deb5750836001600160a01b0316610de0846104e1565b6001600160a01b0316145b80610dfb5750610dfb8285610a44565b90505b9392505050565b6001600160a01b0382161580610e355750610e1f816106aa565b6001600160a01b0316836001600160a01b031614155b15610e535760405163574b16a760e11b815260040160405180910390fd5b610e5f60008285610bd9565b6001600160a01b038083166000818152600260209081526040808320805460019081019091559488168352808320805460001901905585835290849052812080546001600160a01b03191690921790915554908201908111801590610ed957506000818152600160205260409020546001600160a01b0316155b15610f0657600081815260016020526040902080546001600160a01b0319166001600160a01b0386161790555b5080826001600160a01b0316846001600160a01b03167fddf252ad1be2c89b69c2b068fc378daa952ba7f163c4a11628f55a4df523b3ef60405160405180910390a4505050565b604051630a85bd0160e11b81526000906001600160a01b0385169063150b7a0290610f82903390899088908890600401611970565b6020604051808303816000875af1925050508015610fbd575060408051601f3d908101601f19168201909252610fba918101906119bf565b60015b61101b573d808015610feb576040519150601f19603f3d011682016040523d82523d6000602084013e610ff0565b606091505b50805160000361101357604051630568cbab60e01b815260040160405180910390fd5b805181602001fd5b6001600160e01b031916630a85bd0160e11b1490505b949350505050565b6105c0838383600182158061105557506001600160a01b038416155b156110735760405163574b16a760e11b815260040160405180910390fd5b600080546110829060016111c2565b905060008054850181556001600160a01b038616808252600260209081526040808420805489019055848452600190915290912080546001600160a01b0319169091179055808481018380156110e257506000876001600160a01b03163b115b1561115f575b60405182906001600160a01b038916906000907fddf252ad1be2c89b69c2b068fc378daa952ba7f163c4a11628f55a4df523b3ef908290a46111336000888480600101955088610f4d565b61115057604051631f11849560e21b815260040160405180910390fd5b8082036110e8575050506105ae565b5b6040516001830192906001600160a01b038916906000907fddf252ad1be2c89b69c2b068fc378daa952ba7f163c4a11628f55a4df523b3ef908290a48082036111605750505050505050565b634e487b7160e01b600052601160045260246000fd5b8082018082111561044d5761044d6111ac565b6001600160e01b031981165b81146111ec57600080fd5b50565b803561044d816111d5565b60006020828403121561120f5761120f600080fd5b600061103184846111ef565b8015155b82525050565b6020810161044d828461121b565b60005b8381101561124e578181015183820152602001611236565b50506000910152565b6000611261825190565b808452602084019350611278818560208601611233565b601f01601f19169290920192915050565b60208082528101610dfe8184611257565b806111e1565b803561044d8161129a565b6000602082840312156112c0576112c0600080fd5b600061103184846112a0565b60006001600160a01b03821661044d565b61121f816112cc565b6020810161044d82846112dd565b6111e1816112cc565b803561044d816112f4565b6000806040838503121561131e5761131e600080fd5b600061132a85856112fd565b925050602061133b858286016112a0565b9150509250929050565b8061121f565b6020810161044d8284611345565b60008060006060848603121561137157611371600080fd5b600061137d86866112fd565b935050602061138e868287016112fd565b925050604061139f868287016112a0565b9150509250925092565b6000602082840312156113be576113be600080fd5b600061103184846112fd565b8015156111e1565b803561044d816113ca565b600080604083850312156113f3576113f3600080fd5b60006113ff85856112fd565b925050602061133b858286016113d2565b634e487b7160e01b600052604160045260246000fd5b601f19601f830116810181811067ffffffffffffffff8211171561144c5761144c611410565b6040525050565b600061145e60405190565b905061146a8282611426565b919050565b600067ffffffffffffffff82111561148957611489611410565b601f19601f83011660200192915050565b82818337506000910152565b60006114b96114b48461146f565b611453565b9050828152602081018484840111156114d4576114d4600080fd5b6114df84828561149a565b509392505050565b600082601f8301126114fb576114fb600080fd5b81356110318482602086016114a6565b6000806000806080858703121561152457611524600080fd5b600061153087876112fd565b9450506020611541878288016112fd565b9350506040611552878288016112a0565b925050606085013567ffffffffffffffff81111561157257611572600080fd5b61157e878288016114e7565b91505092959194509250565b600080604083850312156115a0576115a0600080fd5b60006115ac85856112a0565b925050602083013567ffffffffffffffff8111156115cc576115cc600080fd5b61133b858286016114e7565b600080604083850312156115ee576115ee600080fd5b60006115fa85856112fd565b925050602061133b858286016112fd565b634e487b7160e01b600052602260045260246000fd5b60028104600182168061163557607f821691505b6020821081036116475761164761160b565b50919050565b602681526000602082017f596f7520646f6e277420686176652066756e647320696e207468652063616c638152653ab630ba37b960d11b602082015291505b5060400190565b6020808252810161044d8161164d565b90565b60008161044d565b60148152600060208201732932bb32b93a32b2103a3930b739b0b1ba34b7b760611b815291505b5060200190565b6020808252810161044d816116ae565b604081016116fa82856112dd565b610dfe6020830184611345565b8181038181111561044d5761044d6111ac565b818102808215838204851417611732576117326111ac565b5092915050565b602681526000602082017f496e73756666696369656e742062616c616e636520746f20636f7665722067618152651cc818dbdcdd60d21b6020820152915061168c565b6020808252810161044d81611739565b601a81526000602082017f54686520646f6e6174696f6e7320617265206e6f74206f70656e000000000000815291506116d5565b6020808252810161044d8161178c565b601a81526000602082017f54686520636f6c6c656374696f6e20697320636f6d706c657465000000000000815291506116d5565b6020808252810161044d816117d0565b600061044d6116a38381565b61182983611814565b815460001960089490940293841b1916921b91909117905550565b60006105c0818484611820565b818110156107c757611864600082611844565b600101611851565b601f8211156105c0576000818152602090206020601f850104810160208510156118935750805b6118a56020601f860104830182611851565b5050505050565b815167ffffffffffffffff8111156118c6576118c6611410565b6118d08254611621565b6118db82828561186c565b6020601f83116001811461190f57600084156118f75750858201515b600019600886021c1981166002860217865550611968565b600085815260208120601f198616915b8281101561193f578885015182556020948501946001909201910161191f565b8683101561195b5784890151600019601f89166008021c191682555b6001600288020188555050505b505050505050565b6080810161197e82876112dd565b61198b60208301866112dd565b6119986040830185611345565b81810360608301526119aa8184611257565b9695505050505050565b805161044d816111d5565b6000602082840312156119d4576119d4600080fd5b600061103184846119b456fea264697066735822122004ce33b93031f7fd677aedefbc08f6930a118a824a74ff3333e4519c22b0f0ca64736f6c63430008130033",
	"devdoc": {
		"events": {
			"Approval(address,address,uint256)": {
				"details": "Emitted when `owner` enables `approved` to manage the `tokenId` token."
			},
			"ApprovalForAll(address,address,bool)": {
				"details": "Emitted when `owner` enables or disables (`approved`) `operator` to manage all of its assets."
			},
			"Transfer(address,address,uint256)": {
				"details": "Emitted when `tokenId` token is transferred from `from` to `to`."
			}
		},
		"kind": "dev",
		"methods": {
			"approve(address,uint256)": {
				"details": "See {IERC721-approve}."
			},
			"balanceOf(address)": {
				"details": "See {IERC721-balanceOf}."
			},
			"getApproved(uint256)": {
				"details": "See {IERC721-getApproved}."
			},
			"isApprovedForAll(address,address)": {
				"details": "See {IERC721-isApprovedForAll}."
			},
			"ownerOf(uint256)": {
				"details": "See {IERC721-ownerOf}."
			},
			"safeTransferFrom(address,address,uint256)": {
				"details": "See {IERC721-safeTransferFrom}."
			},
			"safeTransferFrom(address,address,uint256,bytes)": {
				"details": "See {IERC721-safeTransferFrom}."
			},
			"setApprovalForAll(address,bool)": {
				"details": "See {IERC721-setApprovalForAll}."
			},
			"staticTokenURI(uint256)": {
				"details": "See {IERC721Metadata-tokenURI}."
			},
			"tokenURI(uint256)": {
				"details": "See {IERC721Metadata-tokenURI}."
			},
			"totalSupply()": {
				"details": "Shows the overall amount of tokens generated in the contract"
			},
			"transferFrom(address,address,uint256)": {
				"details": "See {IERC721-transferFrom}."
			}
		},
		"stateVariables": {
			"name": {
				"details": "Returns the token collection name."
			},
			"symbol": {
				"details": "Returns the token collection symbol."
			}
		},
		"version": 1
	},
	"userdoc": {
		"kind": "user",
		"methods": {},
		"version": 1
	},
	"storageLayout": {
		"storage": [
			{
				"astId": 626,
				"contract": "contracts/Footprint.sol:Footprint",
				"label": "_lastTokenId",
				"offset": 0,
				"slot": "0",
				"type": "t_uint256"
			},
			{
				"astId": 630,
				"contract": "contracts/Footprint.sol:Footprint",
				"label": "_owners",
				"offset": 0,
				"slot": "1",
				"type": "t_mapping(t_uint256,t_address)"
			},
			{
				"astId": 634,
				"contract": "contracts/Footprint.sol:Footprint",
				"label": "_balances",
				"offset": 0,
				"slot": "2",
				"type": "t_mapping(t_address,t_uint256)"
			},
			{
				"astId": 638,
				"contract": "contracts/Footprint.sol:Footprint",
				"label": "_tokenApprovals",
				"offset": 0,
				"slot": "3",
				"type": "t_mapping(t_uint256,t_address)"
			},
			{
				"astId": 644,
				"contract": "contracts/Footprint.sol:Footprint",
				"label": "_operatorApprovals",
				"offset": 0,
				"slot": "4",
				"type": "t_mapping(t_address,t_mapping(t_address,t_bool))"
			},
			{
				"astId": 1498,
				"contract": "contracts/Footprint.sol:Footprint",
				"label": "_tokenURIs",
				"offset": 0,
				"slot": "5",
				"type": "t_mapping(t_uint256,t_string_storage)"
			},
			{
				"astId": 319,
				"contract": "contracts/Footprint.sol:Footprint",
				"label": "_tokenIdCounter",
				"offset": 0,
				"slot": "6",
				"type": "t_struct(Counter)188_storage"
			},
			{
				"astId": 321,
				"contract": "contracts/Footprint.sol:Footprint",
				"label": "name",
				"offset": 0,
				"slot": "7",
				"type": "t_string_storage"
			},
			{
				"astId": 323,
				"contract": "contracts/Footprint.sol:Footprint",
				"label": "symbol",
				"offset": 0,
				"slot": "8",
				"type": "t_string_storage"
			},
			{
				"astId": 326,
				"contract": "contracts/Footprint.sol:Footprint",
				"label": "TCO2FaucetExtense",
				"offset": 0,
				"slot": "9",
				"type": "t_contract(ITCO2Faucet)304"
			},
			{
				"astId": 329,
				"contract": "contracts/Footprint.sol:Footprint",
				"label": "TCO2TokenExtense",
				"offset": 0,
				"slot": "10",
				"type": "t_contract(ITCO2Token)310"
			},
			{
				"astId": 333,
				"contract": "contracts/Footprint.sol:Footprint",
				"label": "balances",
				"offset": 0,
				"slot": "11",
				"type": "t_mapping(t_address,t_uint256)"
			},
			{
				"astId": 337,
				"contract": "contracts/Footprint.sol:Footprint",
				"label": "crowfunding",
				"offset": 0,
				"slot": "12",
				"type": "t_mapping(t_address,t_uint256)"
			},
			{
				"astId": 341,
				"contract": "contracts/Footprint.sol:Footprint",
				"label": "charity",
				"offset": 0,
				"slot": "13",
				"type": "t_mapping(t_address,t_uint256)"
			}
		],
		"types": {
			"t_address": {
				"encoding": "inplace",
				"label": "address",
				"numberOfBytes": "20"
			},
			"t_bool": {
				"encoding": "inplace",
				"label": "bool",
				"numberOfBytes": "1"
			},
			"t_contract(ITCO2Faucet)304": {
				"encoding": "inplace",
				"label": "contract ITCO2Faucet",
				"numberOfBytes": "20"
			},
			"t_contract(ITCO2Token)310": {
				"encoding": "inplace",
				"label": "contract ITCO2Token",
				"numberOfBytes": "20"
			},
			"t_mapping(t_address,t_bool)": {
				"encoding": "mapping",
				"key": "t_address",
				"label": "mapping(address => bool)",
				"numberOfBytes": "32",
				"value": "t_bool"
			},
			"t_mapping(t_address,t_mapping(t_address,t_bool))": {
				"encoding": "mapping",
				"key": "t_address",
				"label": "mapping(address => mapping(address => bool))",
				"numberOfBytes": "32",
				"value": "t_mapping(t_address,t_bool)"
			},
			"t_mapping(t_address,t_uint256)": {
				"encoding": "mapping",
				"key": "t_address",
				"label": "mapping(address => uint256)",
				"numberOfBytes": "32",
				"value": "t_uint256"
			},
			"t_mapping(t_uint256,t_address)": {
				"encoding": "mapping",
				"key": "t_uint256",
				"label": "mapping(uint256 => address)",
				"numberOfBytes": "32",
				"value": "t_address"
			},
			"t_mapping(t_uint256,t_string_storage)": {
				"encoding": "mapping",
				"key": "t_uint256",
				"label": "mapping(uint256 => string)",
				"numberOfBytes": "32",
				"value": "t_string_storage"
			},
			"t_string_storage": {
				"encoding": "bytes",
				"label": "string",
				"numberOfBytes": "32"
			},
			"t_struct(Counter)188_storage": {
				"encoding": "inplace",
				"label": "struct Counters.Counter",
				"members": [
					{
						"astId": 187,
						"contract": "contracts/Footprint.sol:Footprint",
						"label": "_value",
						"offset": 0,
						"slot": "0",
						"type": "t_uint256"
					}
				],
				"numberOfBytes": "32"
			},
			"t_uint256": {
				"encoding": "inplace",
				"label": "uint256",
				"numberOfBytes": "32"
			}
		}
	}
}